{"_format":"hh-sol-artifact-1","contractName":"TokenFarm","sourceName":"contracts/TokenFarm.sol","abi":[{"inputs":[{"internalType":"contract DappToken","name":"_daappToken","type":"address"},{"internalType":"contract DAIToken","name":"_daiToken","type":"address"}],"stateMutability":"nonpayable","type":"constructor"},{"anonymous":false,"inputs":[{"indexed":true,"internalType":"address","name":"to","type":"address"},{"indexed":true,"internalType":"uint256","name":"amount","type":"uint256"}],"name":"IssueToken","type":"event"},{"anonymous":false,"inputs":[{"indexed":true,"internalType":"address","name":"previousOwner","type":"address"},{"indexed":true,"internalType":"address","name":"newOwner","type":"address"}],"name":"OwnershipTransferred","type":"event"},{"anonymous":false,"inputs":[{"indexed":true,"internalType":"address","name":"from","type":"address"},{"indexed":true,"internalType":"uint256","name":"amount","type":"uint256"}],"name":"StakeToken","type":"event"},{"anonymous":false,"inputs":[{"indexed":true,"internalType":"address","name":"from","type":"address"},{"indexed":true,"internalType":"uint256","name":"amount","type":"uint256"}],"name":"UnstakeToken","type":"event"},{"inputs":[],"name":"daiToken","outputs":[{"internalType":"contract DAIToken","name":"","type":"address"}],"stateMutability":"view","type":"function"},{"inputs":[],"name":"dappToken","outputs":[{"internalType":"contract DappToken","name":"","type":"address"}],"stateMutability":"view","type":"function"},{"inputs":[],"name":"getOwnStakedTokensBalance","outputs":[{"internalType":"uint256","name":"","type":"uint256"}],"stateMutability":"view","type":"function"},{"inputs":[{"internalType":"address","name":"","type":"address"}],"name":"hasStaked","outputs":[{"internalType":"bool","name":"","type":"bool"}],"stateMutability":"view","type":"function"},{"inputs":[{"internalType":"address","name":"","type":"address"}],"name":"isStaking","outputs":[{"internalType":"bool","name":"","type":"bool"}],"stateMutability":"view","type":"function"},{"inputs":[],"name":"issueTokens","outputs":[],"stateMutability":"nonpayable","type":"function"},{"inputs":[],"name":"name","outputs":[{"internalType":"string","name":"","type":"string"}],"stateMutability":"view","type":"function"},{"inputs":[],"name":"owner","outputs":[{"internalType":"address","name":"","type":"address"}],"stateMutability":"view","type":"function"},{"inputs":[],"name":"renounceOwnership","outputs":[],"stateMutability":"nonpayable","type":"function"},{"inputs":[{"internalType":"uint256","name":"_amount","type":"uint256"}],"name":"stakeTokens","outputs":[],"stateMutability":"nonpayable","type":"function"},{"inputs":[{"internalType":"uint256","name":"","type":"uint256"}],"name":"stakers","outputs":[{"internalType":"address","name":"","type":"address"}],"stateMutability":"view","type":"function"},{"inputs":[{"internalType":"address","name":"","type":"address"}],"name":"stakingBalance","outputs":[{"internalType":"uint256","name":"","type":"uint256"}],"stateMutability":"view","type":"function"},{"inputs":[{"internalType":"address","name":"newOwner","type":"address"}],"name":"transferOwnership","outputs":[],"stateMutability":"nonpayable","type":"function"},{"inputs":[{"internalType":"uint256","name":"_amount","type":"uint256"}],"name":"unstakeTokens","outputs":[],"stateMutability":"nonpayable","type":"function"}],"bytecode":"0x60806040526040518060400160405280600f81526020017f4461707020546f6b656e204661726d00000000000000000000000000000000008152506001908051906020019062000051929190620001fb565b503480156200005f57600080fd5b5060405162001d9738038062001d978339818101604052810190620000859190620002d9565b620000a5620000996200012f60201b60201c565b6200013760201b60201c565b81600260006101000a81548173ffffffffffffffffffffffffffffffffffffffff021916908373ffffffffffffffffffffffffffffffffffffffff16021790555080600360006101000a81548173ffffffffffffffffffffffffffffffffffffffff021916908373ffffffffffffffffffffffffffffffffffffffff16021790555050506200040f565b600033905090565b60008060009054906101000a900473ffffffffffffffffffffffffffffffffffffffff169050816000806101000a81548173ffffffffffffffffffffffffffffffffffffffff021916908373ffffffffffffffffffffffffffffffffffffffff1602179055508173ffffffffffffffffffffffffffffffffffffffff168173ffffffffffffffffffffffffffffffffffffffff167f8be0079c531659141344cd1fd0a4f28419497f9722a3daafe3b4186f6b6457e060405160405180910390a35050565b828054620002099062000376565b90600052602060002090601f0160209004810192826200022d576000855562000279565b82601f106200024857805160ff191683800117855562000279565b8280016001018555821562000279579182015b82811115620002785782518255916020019190600101906200025b565b5b5090506200028891906200028c565b5090565b5b80821115620002a75760008160009055506001016200028d565b5090565b600081519050620002bc81620003db565b92915050565b600081519050620002d381620003f5565b92915050565b60008060408385031215620002ed57600080fd5b6000620002fd85828601620002c2565b92505060206200031085828601620002ab565b9150509250929050565b6000620003278262000356565b9050919050565b60006200033b826200031a565b9050919050565b60006200034f826200031a565b9050919050565b600073ffffffffffffffffffffffffffffffffffffffff82169050919050565b600060028204905060018216806200038f57607f821691505b60208210811415620003a657620003a5620003ac565b5b50919050565b7f4e487b7100000000000000000000000000000000000000000000000000000000600052602260045260246000fd5b620003e6816200032e565b8114620003f257600080fd5b50565b620004008162000342565b81146200040c57600080fd5b50565b611978806200041f6000396000f3fe608060405234801561001057600080fd5b50600436106100ea5760003560e01c80637547c7a31161008c578063be22f54611610066578063be22f54614610213578063c93c8f3414610231578063f2fde38b14610261578063fd5e6dd11461027d576100ea565b80637547c7a3146101bb5780638da5cb5b146101d7578063960d823a146101f5576100ea565b8063608e4dd0116100c8578063608e4dd01461015b57806360ab5852146101775780636f49712b14610181578063715018a6146101b1576100ea565b806306fdde03146100ef57806345bc78ab1461010d5780635eb186f81461013d575b600080fd5b6100f76102ad565b604051610104919061157d565b60405180910390f35b610127600480360381019061012291906111c0565b61033b565b604051610134919061168f565b60405180910390f35b610145610353565b6040516101529190611562565b60405180910390f35b61017560048036038101906101709190611212565b610379565b005b61017f610744565b005b61019b600480360381019061019691906111c0565b6109e6565b6040516101a8919061152c565b60405180910390f35b6101b9610a06565b005b6101d560048036038101906101d09190611212565b610a8e565b005b6101df610e03565b6040516101ec91906114b1565b60405180910390f35b6101fd610e2c565b60405161020a919061168f565b60405180910390f35b61021b610e73565b6040516102289190611547565b60405180910390f35b61024b600480360381019061024691906111c0565b610e99565b604051610258919061152c565b60405180910390f35b61027b600480360381019061027691906111c0565b610eb9565b005b61029760048036038101906102929190611212565b610fb1565b6040516102a491906114b1565b60405180910390f35b600180546102ba90611813565b80601f01602080910402602001604051908101604052809291908181526020018280546102e690611813565b80156103335780601f1061030857610100808354040283529160200191610333565b820191906000526020600020905b81548152906001019060200180831161031657829003601f168201915b505050505081565b60056020528060005260406000206000915090505481565b600260009054906101000a900473ffffffffffffffffffffffffffffffffffffffff1681565b600081116103bc576040517f08c379a00000000000000000000000000000000000000000000000000000000081526004016103b3906115ef565b60405180910390fd5b600660003373ffffffffffffffffffffffffffffffffffffffff1673ffffffffffffffffffffffffffffffffffffffff16815260200190815260200160002060009054906101000a900460ff16610448576040517f08c379a000000000000000000000000000000000000000000000000000000000815260040161043f9061166f565b60405180910390fd5b600760003373ffffffffffffffffffffffffffffffffffffffff1673ffffffffffffffffffffffffffffffffffffffff16815260200190815260200160002060009054906101000a900460ff166104d4576040517f08c379a00000000000000000000000000000000000000000000000000000000081526004016104cb9061164f565b60405180910390fd5b80600560003373ffffffffffffffffffffffffffffffffffffffff1673ffffffffffffffffffffffffffffffffffffffff168152602001908152602001600020541015610556576040517f08c379a000000000000000000000000000000000000000000000000000000000815260040161054d9061160f565b60405180910390fd5b600360009054906101000a900473ffffffffffffffffffffffffffffffffffffffff1673ffffffffffffffffffffffffffffffffffffffff1663a9059cbb33836040518363ffffffff1660e01b81526004016105b3929190611503565b602060405180830381600087803b1580156105cd57600080fd5b505af11580156105e1573d6000803e3d6000fd5b505050506040513d601f19601f8201168201806040525081019061060591906111e9565b50803373ffffffffffffffffffffffffffffffffffffffff167ff6e150e51c76005159a20fcadc3a9f06fba011914a1faeba1c7e8d82860643f760405160405180910390a380600560003373ffffffffffffffffffffffffffffffffffffffff1673ffffffffffffffffffffffffffffffffffffffff1681526020019081526020016000206000828254610699919061171c565b925050819055506000600560003373ffffffffffffffffffffffffffffffffffffffff1673ffffffffffffffffffffffffffffffffffffffff168152602001908152602001600020541415610741576000600760003373ffffffffffffffffffffffffffffffffffffffff1673ffffffffffffffffffffffffffffffffffffffff16815260200190815260200160002060006101000a81548160ff0219169083151502179055505b50565b61074c610ff0565b73ffffffffffffffffffffffffffffffffffffffff1661076a610e03565b73ffffffffffffffffffffffffffffffffffffffff16146107c0576040517f08c379a00000000000000000000000000000000000000000000000000000000081526004016107b79061162f565b60405180910390fd5b60005b6004805490508110156109e35760006004828154811061080c577f4e487b7100000000000000000000000000000000000000000000000000000000600052603260045260246000fd5b9060005260206000200160009054906101000a900473ffffffffffffffffffffffffffffffffffffffff169050600760008273ffffffffffffffffffffffffffffffffffffffff1673ffffffffffffffffffffffffffffffffffffffff16815260200190815260200160002060009054906101000a900460ff16156109cf576000600560008373ffffffffffffffffffffffffffffffffffffffff1673ffffffffffffffffffffffffffffffffffffffff16815260200190815260200160002054905060008111156109cd57600260009054906101000a900473ffffffffffffffffffffffffffffffffffffffff1673ffffffffffffffffffffffffffffffffffffffff1663a9059cbb83836040518363ffffffff1660e01b8152600401610935929190611503565b602060405180830381600087803b15801561094f57600080fd5b505af1158015610963573d6000803e3d6000fd5b505050506040513d601f19601f8201168201806040525081019061098791906111e9565b50808273ffffffffffffffffffffffffffffffffffffffff167f7ba26a0f068612fb882b3272004674d21fed286c2c8c795cf653044690b32db460405160405180910390a35b505b5080806109db90611845565b9150506107c3565b50565b60076020528060005260406000206000915054906101000a900460ff1681565b610a0e610ff0565b73ffffffffffffffffffffffffffffffffffffffff16610a2c610e03565b73ffffffffffffffffffffffffffffffffffffffff1614610a82576040517f08c379a0000000000000000000000000000000000000000000000000000000008152600401610a799061162f565b60405180910390fd5b610a8c6000610ff8565b565b60008111610ad1576040517f08c379a0000000000000000000000000000000000000000000000000000000008152600401610ac8906115ef565b60405180910390fd5b600360009054906101000a900473ffffffffffffffffffffffffffffffffffffffff1673ffffffffffffffffffffffffffffffffffffffff166323b872dd3330846040518463ffffffff1660e01b8152600401610b30939291906114cc565b602060405180830381600087803b158015610b4a57600080fd5b505af1158015610b5e573d6000803e3d6000fd5b505050506040513d601f19601f82011682018060405250810190610b8291906111e9565b5080600560003373ffffffffffffffffffffffffffffffffffffffff1673ffffffffffffffffffffffffffffffffffffffff1681526020019081526020016000206000828254610bd291906116c6565b92505081905550610c576040518060400160405280601281526020017f7374616b696e6742616c616e63653a2025730000000000000000000000000000815250600560003373ffffffffffffffffffffffffffffffffffffffff1673ffffffffffffffffffffffffffffffffffffffff168152602001908152602001600020546110bc565b600660003373ffffffffffffffffffffffffffffffffffffffff1673ffffffffffffffffffffffffffffffffffffffff16815260200190815260200160002060009054906101000a900460ff16610e00576004339080600181540180825580915050600190039060005260206000200160009091909190916101000a81548173ffffffffffffffffffffffffffffffffffffffff021916908373ffffffffffffffffffffffffffffffffffffffff1602179055506001600660003373ffffffffffffffffffffffffffffffffffffffff1673ffffffffffffffffffffffffffffffffffffffff16815260200190815260200160002060006101000a81548160ff0219169083151502179055506001600760003373ffffffffffffffffffffffffffffffffffffffff1673ffffffffffffffffffffffffffffffffffffffff16815260200190815260200160002060006101000a81548160ff021916908315150217905550803373ffffffffffffffffffffffffffffffffffffffff167f95d0aa551474aeee124f0d92b9adb26d65b9472f637c408329a728e40ad0e8ef60405160405180910390a35b50565b60008060009054906101000a900473ffffffffffffffffffffffffffffffffffffffff16905090565b6000600560003373ffffffffffffffffffffffffffffffffffffffff1673ffffffffffffffffffffffffffffffffffffffff16815260200190815260200160002054905090565b600360009054906101000a900473ffffffffffffffffffffffffffffffffffffffff1681565b60066020528060005260406000206000915054906101000a900460ff1681565b610ec1610ff0565b73ffffffffffffffffffffffffffffffffffffffff16610edf610e03565b73ffffffffffffffffffffffffffffffffffffffff1614610f35576040517f08c379a0000000000000000000000000000000000000000000000000000000008152600401610f2c9061162f565b60405180910390fd5b600073ffffffffffffffffffffffffffffffffffffffff168173ffffffffffffffffffffffffffffffffffffffff161415610fa5576040517f08c379a0000000000000000000000000000000000000000000000000000000008152600401610f9c906115cf565b60405180910390fd5b610fae81610ff8565b50565b60048181548110610fc157600080fd5b906000526020600020016000915054906101000a900473ffffffffffffffffffffffffffffffffffffffff1681565b600033905090565b60008060009054906101000a900473ffffffffffffffffffffffffffffffffffffffff169050816000806101000a81548173ffffffffffffffffffffffffffffffffffffffff021916908373ffffffffffffffffffffffffffffffffffffffff1602179055508173ffffffffffffffffffffffffffffffffffffffff168173ffffffffffffffffffffffffffffffffffffffff167f8be0079c531659141344cd1fd0a4f28419497f9722a3daafe3b4186f6b6457e060405160405180910390a35050565b61115482826040516024016110d292919061159f565b6040516020818303038152906040527f9710a9d0000000000000000000000000000000000000000000000000000000007bffffffffffffffffffffffffffffffffffffffffffffffffffffffff19166020820180517bffffffffffffffffffffffffffffffffffffffffffffffffffffffff8381831617835250505050611158565b5050565b60008151905060006a636f6e736f6c652e6c6f679050602083016000808483855afa5050505050565b600081359050611190816118fd565b92915050565b6000815190506111a581611914565b92915050565b6000813590506111ba8161192b565b92915050565b6000602082840312156111d257600080fd5b60006111e084828501611181565b91505092915050565b6000602082840312156111fb57600080fd5b600061120984828501611196565b91505092915050565b60006020828403121561122457600080fd5b6000611232848285016111ab565b91505092915050565b61124481611750565b82525050565b61125381611762565b82525050565b61126281611798565b82525050565b611271816117bc565b82525050565b6000611282826116aa565b61128c81856116b5565b935061129c8185602086016117e0565b6112a5816118ec565b840191505092915050565b60006112bd6026836116b5565b91507f4f776e61626c653a206e6577206f776e657220697320746865207a65726f206160008301527f64647265737300000000000000000000000000000000000000000000000000006020830152604082019050919050565b6000611323601d836116b5565b91507f416d6f756e74206d7573742062652067726561746572207468616e20300000006000830152602082019050919050565b60006113636037836116b5565b91507f596f7572207374616b696e672062616c616e6365206973206c6f77657220746860008301527f616e207468652072657175657374656420616d6f756e740000000000000000006020830152604082019050919050565b60006113c96020836116b5565b91507f4f776e61626c653a2063616c6c6572206973206e6f7420746865206f776e65726000830152602082019050919050565b60006114096029836116b5565b91507f596f752068617665206e6f7468696e67207374616b6564206f6e20746869732060008301527f636f6e74726163742e00000000000000000000000000000000000000000000006020830152604082019050919050565b600061146f601e836116b5565b91507f596f752068617665206e6f74207374616b656420616e7920746f6b656e7300006000830152602082019050919050565b6114ab8161178e565b82525050565b60006020820190506114c6600083018461123b565b92915050565b60006060820190506114e1600083018661123b565b6114ee602083018561123b565b6114fb60408301846114a2565b949350505050565b6000604082019050611518600083018561123b565b61152560208301846114a2565b9392505050565b6000602082019050611541600083018461124a565b92915050565b600060208201905061155c6000830184611259565b92915050565b60006020820190506115776000830184611268565b92915050565b600060208201905081810360008301526115978184611277565b905092915050565b600060408201905081810360008301526115b98185611277565b90506115c860208301846114a2565b9392505050565b600060208201905081810360008301526115e8816112b0565b9050919050565b6000602082019050818103600083015261160881611316565b9050919050565b6000602082019050818103600083015261162881611356565b9050919050565b60006020820190508181036000830152611648816113bc565b9050919050565b60006020820190508181036000830152611668816113fc565b9050919050565b6000602082019050818103600083015261168881611462565b9050919050565b60006020820190506116a460008301846114a2565b92915050565b600081519050919050565b600082825260208201905092915050565b60006116d18261178e565b91506116dc8361178e565b9250827fffffffffffffffffffffffffffffffffffffffffffffffffffffffffffffffff038211156117115761171061188e565b5b828201905092915050565b60006117278261178e565b91506117328361178e565b9250828210156117455761174461188e565b5b828203905092915050565b600061175b8261176e565b9050919050565b60008115159050919050565b600073ffffffffffffffffffffffffffffffffffffffff82169050919050565b6000819050919050565b60006117a3826117aa565b9050919050565b60006117b58261176e565b9050919050565b60006117c7826117ce565b9050919050565b60006117d98261176e565b9050919050565b60005b838110156117fe5780820151818401526020810190506117e3565b8381111561180d576000848401525b50505050565b6000600282049050600182168061182b57607f821691505b6020821081141561183f5761183e6118bd565b5b50919050565b60006118508261178e565b91507fffffffffffffffffffffffffffffffffffffffffffffffffffffffffffffffff8214156118835761188261188e565b5b600182019050919050565b7f4e487b7100000000000000000000000000000000000000000000000000000000600052601160045260246000fd5b7f4e487b7100000000000000000000000000000000000000000000000000000000600052602260045260246000fd5b6000601f19601f8301169050919050565b61190681611750565b811461191157600080fd5b50565b61191d81611762565b811461192857600080fd5b50565b6119348161178e565b811461193f57600080fd5b5056fea264697066735822122054ef38922ecad842464e26d2e9a60661676597cffe0602d0a060bcf42098ab0e64736f6c63430008000033","linkReferences":{},"deployedLinkReferences":{},"address":"0x761C0c972539A5D101FECaDA063DFe07FC41b210","network":{"name":"localhost","chainId":1337}}